:020000022000DC
:103000000000012081AB0200A9AB0200ABAB0200C3
:10301000ADAB0200AFAB0200B1AB0200000000009C
:10302000000000000000000000000000B3AB020040
:10303000B5AB020000000000B7AB0200B9AB020064
:1030400045590200BBAB0200A5640200016A020000
:103050004D6A0200BBAB0200315B0200BBAB020059
:10306000BBAB0200BBAB0200BBAB0200BBAB0200C0
:10307000BBAB0200BBAB0200BBAB0200BBAB0200B0
:10308000BBAB020045420200BBAB0200BBAB02007F
:103090000D430200BBAB02003DB20200BBAB02001D
:1030A000BBAB0200BBAB0200BBAB0200BBAB020080
:1030B000BBAB0200BBAB0200000000000000000040
:1030C000BBAB0200BBAB0200BBAB0200BBAB020060
:1030D000BBAB0200BBAB0200BBAB020000000000B8
:1030E00000000000000000000000000000000000E0
:1030F00000000000000000000000000000000000D0
:1031000000000000000000000000000000000000BF
:1031100000000000000000000000000000000000AF
:10312000000000000000000000000000000000009F
:10313000000000000000000000000000000000008F
:10314000000000000000000000000000000000007F
:10315000000000000000000000000000000000006F
:10316000000000000000000000000000000000005F
:10317000000000000000000000000000000000004F
:10318000000000000000000000000000000000003F
:10319000000000000000000000000000000000002F
:1031A000000000000000000000000000000000001F
:1031B000000000000000000000000000000000000F
:1031C00000000000000000000000000000000000FF
:1031D00000000000000000000000000000000000EF
:1031E00000000000000000000000000000000000DF
:1031F00000000000000000000000000000000000CF
:1032000010B5054C237833B9044B13B10448AFF320
:1032100000800123237010BD142400200000000052
:103220007CC0020008B5034B1BB103490348AFF350
:10323000008008BD00000000182400207CC00200AF
:10324000154B002B08BF134B9D46A3F5803A002178
:103250008B460F461348144A121A08F0A8F90F4B70
:10326000002B00D098470E4B002B00D09847002031
:10327000002104000D000D48002802D00C48AFF3D7
:10328000008008F045F92000290003F007FC08F051
:103290002BF900BF00000800000001200000000022
:1032A0000000000014240020A8A500200000000059
:1032B00000000000F0B595B0002415460F46084602
:1032C0001E4602F053F9384623460895082205A900
:1032D0001A9D09960D950A948DF82C400C9402F0D5
:1032E000ABF99DF814308DF81040DDE9061003F0BD
:1032F0000302012A0290ADF80C102BD0022A04D050
:10330000384602F043F915B0F0BDBDF81650C3F3CE
:10331000C202C3F38003AD098DF80E208DF80F3083
:103320000826082D2C4628BF0824334622460EA91D
:10333000384602F081F92D1B214608AB02AA0EA8DF
:10334000264400F089FD002DEBD1384602F01EF92D
:1033500015B0F0BDBDF814500598C5F38315C3F33F
:10336000C20CAA000EA9C3F38004C0F3952608235B
:1033700038468DF80EC08DF80F4002F05DF908ABAD
:103380002A4630460EA9009302AB00F0CDFC384629
:1033900002F0FCF815B0F0BD014B01221A70704725
:1033A00074240020704700BF70B50E4D0E4888B0E1
:1033B00002F04AFF0FCD6C460FC495E80F0008AD30
:1033C000062645F8206D84E80F00294600220648AD
:1033D00002F052FE08B100F00DFE044B00221A70FC
:1033E00008B070BD04B60200802100203024002007
:1033F00000B583B0044B0093044A4023FFF75AFF03
:1034000003B05DF804FB00BF113402003424002037
:1034100010B5094C09480023D2B2237002F098FF7E
:1034200030B9074B1B7813B12378002BFCD010BDAB
:1034300000F0E0FDF5E700BF7424002080210020AB
:103440003024002070B50D4D0FCD88B06C460FC4F0
:1034500095E80F0008AD062645F8206D84E80F00BA
:103460002946074A074802F007FE08B100F0C2FDEE
:10347000054B01221A7008B070BD00BF04B60200EF
:1034800099330200802100203024002010B5054C23
:10349000FFF7D8FF2046042100F004FC01236372EB
:1034A00010BD00BF882100202DE9F047824C002389
:1034B00084B0C4F81834BFF34F8FD4E9017607EA1B
:1034C0000601CB1C04EB830214F8233098073D4619
:1034D0000FD1138852889B0903EB921301331D44CB
:1034E00006EA0501CB1C04EB830214F823309B078A
:1034F000EFD004EB81016A1CCB680193324004EBEE
:10350000820203F00303D2680292022B05F1020843
:103510000FD0012B75D0032B06D02068C01B18BF1D
:10352000012004B0BDE8F087D4F818040028F4D1D5
:10353000F7E7BDF8063061484FEA93194D46502D24
:1035400028BF502565F38F1305F10801ADF806304B
:1035500001F0CAFF0746002851D026EA080A0AF1FE
:10356000010A02F003F84FEA8A0A0023082201A99F
:10357000384602F033F8554540F29080EBB2BAF18C
:10358000000F00F0848006EA0801A3EB0A03033170
:1035900004EB8101DDB252460823384602F01EF8E2
:1035A0002A460AF108034649384602F017F809F19D
:1035B000030908EB9909D4F81834002B62D1D4F828
:1035C000105455B16B7A28463946002B56D02B68DB
:1035D0001B6898476D68002DF4D1384601F0D6FF7E
:1035E00004A8002300F80D3D01F05EFBD4F8183468
:1035F0000BB9C4F804909DF8030001F07BFB6768E9
:103600008BE7BDF804302D48C3F38311062928BF8A
:10361000062161F3891302318900ADF8043001F00D
:1036200063FF07460028EAD001F0A0FF002308222C
:1036300001A9384601F0D2FFBDF8043013F4707FC1
:1036400037D06FF0010AAAEB050A082506EA08013F
:1036500003312B46042204EB8101384601F0BEFF02
:10366000BDF8043008F101090AEB0902C3F3831322
:103670009A42C84605F10405E8D39CE76D68002D21
:10368000A0D1AAE7384601F081FF676845E72A46DE
:1036900008230B49384601F0A1FF88E706EA080134
:1036A000033104EB81012A460823384601F096FFD6
:1036B0007DE7C1467FE700BF7824002030B60200D6
:1036C0008424002008B50E4B0E480022FF21C3F8C9
:1036D00018249960C3E90022C3F8142483F81C2439
:1036E00001F000FF58B90849084BC91AC90806D0AB
:1036F000074A034622F80C3B01339942FAD108BD30
:103700007824002030B6020008C10200B0C00200D8
:103710009023002021B9134A02EBC00000687047D3
:1037200030B411490F4C091BC90816D00F4B5A88E9
:10373000824218BF002205D111E0DD89854203F1E4
:103740000C0305D001329142F7D1002030BC704704
:1037500004EBC200006830BC70470846F6E720461C
:10376000F8E700BFB0C0020008C1020090230020AB
:10377000094B013903EBC00003290BD8DFE801F046
:1037800002080604022070474079704700797047AC
:103790000420704700207047B0C002002DE9F04FB0
:1037A00089B008AB002703F80D7D604C02901846E5
:1037B000A3680193039101F077FAD4E901E0D4F80A
:1037C000008000EB0E030133A3EB0803032B60D84A
:1037D00000F1010AAAEB080A04F5836C04F214460E
:1037E00000EA0E0901255CE8003F43EA05024CE8C7
:1037F000002191F0000FF6D156E8003F43EA0502A0
:1038000046E8002191F0000FF6D109F1030304EB23
:10381000830114F823309B07CB46724610D10B88E6
:1038200049889B0903EB911301331A4400EA020B08
:103830000BF1030304EB830114F823309B07EED054
:1038400004EB8B0B0232DBF80C30059303F003031F
:10385000012B65D0022B05D1BDF816309B0903332F
:1038600002EB930256E8003F03EA070146E8001B1B
:103870009BF0000FF6D143B10AEB0203032B626009
:1038800007D8964600EA0209ADE70AEB0E03032BC0
:10389000A9D908EA0000C31C08F1020114F823208A
:1038A0009DF8130042F0030204F82320216001F088
:1038B00021FA019A029908F10103134004EB8303F2
:1038C00002EA080808F103080A0CDA6014F8283044
:1038D0000A0962F3820361F3C50304F8283034F85F
:1038E0002830039A6FF3891324F8283054F82830CD
:1038F00062F39F231A46012161F3010244F8283044
:1039000004F8282094F81C341BB906E0FFF7CCFD1E
:1039100018B1D4E900329A42F8D109B0BDE8F08F6D
:10392000BDF81430C3F383131A449BE778240020B6
:103930002DE9F04F89B008AB002703F80D7D644CEA
:1039400001901846A3680093CDE9021201F0ACF98A
:10395000D4E901E0D4F8008000EB0E030133A3EBBF
:103960000803042B60D800F1010AAAEB080A04F549
:10397000836C04F2144600EA0E0901255CE8003F5E
:1039800043EA05024CE8002191F0000FF6D156E819
:10399000003F43EA050246E8002191F0000FF6D10E
:1039A00009F1030304EB830114F823309B07CB4692
:1039B000724610D10B8849889B0903EB91130133A0
:1039C0001A4400EA020B0BF1030304EB830114F821
:1039D00023309B07EED004EB8B0B0232DBF80C306C
:1039E000059303F00303012B6CD0022B05D1BDF826
:1039F00016309B09033302EB930256E8003F03EABB
:103A0000070146E8001B9BF0000FF6D143B10AEB1B
:103A10000203042B626007D8964600EA0209ADE76C
:103A20000AEB0E03042BA9D908EA0000C31C08F115
:103A3000030114F823209DF8130042F0030204F858
:103A40002320216001F056F900990198039D08F1A7
:103A5000020208F101030A400B4004EB820204EB6E
:103A6000830301EA080808F10308010CD560D96056
:103A700014F82830020962F3820360F3C50304F8E6
:103A8000283034F82830029A012161F3891324F890
:103A9000283054F8283062F39F231A4661F301025C
:103AA00044F8283004F8282094F81C341BB906E0A8
:103AB000FFF7FAFC18B1D4E900329A42F8D109B004
:103AC000BDE8F08FBDF81430C3F383131A4494E7B4
:103AD000782400202DE9F04F8BB00AAD00276A4C06
:103AE00005F80D7D029005932846A3680193CDE962
:103AF000031201F0D9F8D4E901E0D4F8008000EB1A
:103B00000E030133A3EB0803052B60D800F1010A73
:103B1000AAEB080A04F5836C04F2144600EA0E09C5
:103B200001255CE8003F43EA05024CE8002191F0E2
:103B3000000FF6D156E8003F43EA050246E80021AF
:103B400091F0000FF6D109F1030304EB830114F89F
:103B500023309B07CB46724610D10B8849889B09BE
:103B600003EB911301331A4400EA020B0BF1030338
:103B700004EB830114F823309B07EED004EB8B0B8E
:103B80000232DBF80C30079303F00303012B74D0EF
:103B9000022B05D1BDF81E309B09033302EB9302C3
:103BA00056E8003F03EA070146E8001B9BF0000FC0
:103BB000F6D143B10AEB0203052B626007D89646A3
:103BC00000EA0209ADE70AEB0E03052BA9D908EAC2
:103BD0000000C31C08F1040114F823209DF81B0009
:103BE00042F0030204F82320216001F083F80198D9
:103BF000029D049E08F1020108F1030208F101038D
:103C000001400240034004EB810104EB820204EB1B
:103C1000830300EA0808CE6008F103080599D16023
:103C2000280CD86014F828302A0962F3820365F35F
:103C3000C50304F8283034F82830022262F38913CF
:103C400024F82830039A54F8283062F39F231A4648
:103C5000012161F3010244F8283004F8282094F887
:103C60001C341BB906E0FFF71FFC18B1D4E9003281
:103C70009A42F8D10BB0BDE8F08FBDF81C30C3F309
:103C800083131A448CE700BF78240020044BD3E947
:103C900000239A4201D0FFF707BC0020704700BF05
:103CA0007824002030B4154DD5F81044002154B1CB
:103CB000237A8B4213D0234602E01A7A8A420ED02E
:103CC0005B68002BF9D10172D5F810347BB15B68C9
:103CD0004360D5F81034586030BC08467047013155
:103CE0000A29E4D14FF0FF31084630BC7047C5F8CF
:103CF0001004436030BC0846704700BF78240020A1
:103D000038B5084BD3F81044012583F81C543CB156
:103D10002368657220465B6898476468002CF7D179
:103D200038BD00BF782400202DE9F04784B01D463F
:103D30000C9C002394F80C802373EB7981460E468B
:103D40001746DBB1062F09D8DFE807F00430363D0F
:103D500046515E004946204601F050F8EB792BB9F8
:103D60002B7AEBB93649204601F048F8204601F09D
:103D700039F884F80C8004B0BDE8F0872B7AA88865
:103D8000A979002B4FD12F4B53F821A00021FFF729
:103D9000C1FC524603462C49204601F02FF8D1E7DA
:103DA0002A4A2B49204601F029F8DBE732684946C8
:103DB000204601F023F8D1E74946D6E90023204602
:103DC00001F01CF8CAE7B168D6E90023204600914B
:103DD000494601F013F8C1E7D6E90201D6E900230C
:103DE000019100904946204601F008F8B6E7D6E96F
:103DF0000371B068D6E900230291CDE90007494676
:103E0000204600F0FBFFA9E7D6E90410D6E900231D
:103E10000390D6E902070291CDE900074946204602
:103E200000F0ECFF9AE7FFF7A3FC0A4B084953F8B0
:103E30002020204600F0E2FFA979A888A3E700BF70
:103E400098B602009CB6020084B6020090B602004A
:103E500080B6020048B6020008295CD82DE9F04F70
:103E60001D46914600232A7B2B7383B099F80730B7
:103E7000019207460E46002B4ED0DFF808B1DFF85E
:103E80000881002405E03A5D013400F0B7FF082CFA
:103E900009D0A64241462846F5D85946013400F0DB
:103EA000ADFF082CF5D13049DFF8E080DFF8E0B055
:103EB000284600F0A3FF002411E017F804A007F043
:103EC0004BFB50445946437813F0970F14BF5246AA
:103ED0002E222846013400F091FF082C08D0A6427B
:103EE00041462846E9D8013400F088FF082CF6D175
:103EF00099F8073013B999F808300BBB1B492846CD
:103F000000F07CFF284600F06DFF9DF804302B7315
:103F100003B0BDE8F08F704799F80830B9F8040095
:103F200099F8061093B9124B53F821400021FFF77E
:103F3000F1FB224603460F49284600F05FFF9CE74D
:103F40000D4A0E49284600F059FFD7E7FFF710FC4D
:103F50000B4B0A4953F82020284600F04FFF99F8F0
:103F60000610B9F80400DEE778B6020098B6020041
:103F70009CB6020084B6020090B6020080B6020031
:103F800048B6020074B602006CB602008CB602009D
:103F90007CB6020070B5084D2B785BB1074E00244B
:103FA0003368012113F8340001F02EFD2B78013421
:103FB000A342F5D8002070BD682900208C2900207C
:103FC00070B5094D2B7853B1084E0024336813F8AF
:103FD000340001F07BFD2B780134A342F6D804486D
:103FE000BDE8704000F0F2BD682900208C29002057
:103FF0006C29002000B585B000230390194601AA62
:1040000044F20100ADF80430029300F003F805B06B
:104010005DF804FB10B5FFF773FEFFF737FE0028CD
:10402000FBD1104C10492088000440F00100FFF73C
:10403000B5FB0E4B1B68DB0700D5FFDE20880C4963
:10404000000440F00200FFF7A9FBBFF34F8F0949BE
:10405000094BCA6802F4E0621343CB60BFF34F8F91
:1040600000BFFDE79023002010B70200F0ED00E054
:104070001CB7020000ED00E00400FA05F0B412F0F5
:10408000030412D14B1CDB000A4D0B4E0B4F347056
:104090009BB213442B600A4E0A4D0B4B28803A60AA
:1040A000347019802046F0BC704707242046F0BCCD
:1040B000704700BF942900209029002098290020F3
:1040C000A02900209C2900209E2900202DE9F047EE
:1040D0002D4F3B888B4282B03CD3054602A84FF05F
:1040E000000800F8018D16460C4600F0DDFD274B58
:1040F000274A284819781378B0F800C09DF80700BF
:10410000DBB2634538BF0133C9B238BF5FFA83F809
:10411000414523D092F800801378DFF88090DBB21D
:104120009C4586BF0133DBB200235FFA88F8137029
:1041300000F0E0FDD9F800300FFA88F24FEAC20A29
:1041400043F83260534405B174B90020988002B03E
:10415000BDE8F087092002B0BDE8F08700F0CAFD95
:10416000042002B0BDE8F0870B4B38881B68294655
:1041700008FB0030224607F00FFAD9F800309A44C5
:104180000020AAF80440E2E79C290020A029002092
:10419000902900209E2900209429002098290020A1
:1041A0002DE9F84F1B4C1C4D22782B789A4226D0D3
:1041B000DFF86CA0DFF86C90184FDFF86CB04FF0B0
:1041C00000082378DAF800203888D9F80060DBB2DC
:1041D0000FFA83FE02EBCE0103FB0060898852F8E0
:1041E0003E3098472378BBF80010DBB25A1C994246
:1041F000D2B206D9227023782A789A42E1D1BDE85A
:10420000F88F84F8008022782B789A42D9D1BDE8C3
:10421000F88F00BFA0290020902900209C290020B1
:1042200098290020942900209E290020082910B5F3
:10423000044602D00020FFF7DDFED4E90030BDE8DF
:10424000104018472DE9F041284A294B0024C2F8B4
:104250004041C2F84441C2F84841C2F84C41C2F85A
:104260000041C2F804411B6882B033B32149D2F83F
:1042700004550A68204EAD1A1A6825F07F45AA42F7
:1042800027460CD8197CD3F81C80AD1A1444B9B950
:10429000B8F1000F03D043461A68AA42F2D9174971
:1042A000174A0B7812789A4219D01649164A41F8E3
:1042B00023404FF48013C2F8003102B0BDE8F08112
:1042C0001F74D3E9053208210192684632460093F3
:1042D000FFF7FCFE0028DBD0FFF78CFED8E7531C6D
:1042E000DBB2022B08BF00230B70DEE70010014099
:1042F000C42A0020C02A00202D420200BD2A00202E
:10430000BC2A0020B42A002000E100E02DE9F04F93
:10431000AF48B04AB04913780978D0F80090AF4858
:1043200089B000680290994200F04E810133DBB2FF
:10433000022B08BF00231370A94A52F82300A44B94
:1043400009EB000727F07F471F60029B00252A46E4
:104350002C46AC46B3B11968814200F24D81DD684C
:10436000C3F800C0401A0C44D9693DB109EB0406FA
:1043700026F07F46C3E90165DA611A460B4601253E
:10438000002BE8D1002D40F09B8101230299069378
:10439000B946944B944C1B7805934FF000084B465C
:1043A000CDF81C80CDF80C804FF0010EC1468C4634
:1043B0009B4642B3D2E901651346D2698B48A6EB0E
:1043C0000B0121F07F41814259D829441960002016
:1043D00083F810E0C3E90100D861BCF1000F72D08E
:1043E000DCF8000088425FD2664603E02868884215
:1043F00063D22E46F569091A002DF7D11960DD61E7
:10440000F361002AD6D1CA46CDF804B094F80190E1
:1044100021784FF0000B1646894576D0084600EB10
:10442000400004EBC0004A1CA378D1B2027921708D
:104430008B4204BF84F800B00021022A836853D065
:10444000032A44D0012AE7D11F7C002FE4D1324651
:10445000C6685E6005699D604169D960816999613E
:104460000599DDF804B0D1460029A7D03E46A6EB59
:104470000B015E485F6021F07F418142A5D9ABEB23
:10448000060121F07F41A94202D2691A19609EE714
:10449000002183F810E0C3E900119960D961BCF1F3
:1044A000000F10D0DCF80000411ACCF800104FF0DB
:1044B0000108C3F81CC09C467BE7401A28601960BD
:1044C000DD61F3619DE79C464FF0010871E7BCF1A7
:1044D000000FA1D0624600231374D269002AFBD1D9
:1044E00094464FF0010891E7BCF1000F09D06345F5
:1044F000624603D192E083424FD00246D069002841
:10450000F9D183F810B0894588D1C346DDF804900D
:10451000D046BBF1000F40F0D780079B002B40F046
:104520001A82B8F1000F03D02E4B9DF814201A7098
:104530002A4B1A68039B1BB9029B9A4200F0C88061
:10454000002A00F0CC802A48214BD0F804151B68C3
:10455000284C15682678CA1A22F07F420332002EB2
:1045600000F0A68195422CBF5B199B18204823F0D0
:104570007F43C0F84035D0F80425521A5B1A22F068
:104580007F4223F07F4303329A4200F24781154A6B
:104590000023137009B0BDE8F08F934236D0674610
:1045A00004931D46E8692D68D06128B102682A4449
:1045B0000260217894F801906745A2D00122BC46A0
:1045C000039283F810B09EE7002206920146E0E6CF
:1045D000C02A0020BC2A0020BD2A0020C42A0020B6
:1045E000B42A0020B02A0020A4290020FEFF7F006A
:1045F00000100140B12A0020002D40F0B081091ABE
:1046000019600123B94606930299C2E60493DCF8C7
:104610001C7037B14FF00108049DC3E7CDF810C0FE
:10462000F5E77748774DC0F808E077484FF02F0856
:10463000006800BF00BF00BF00BF00BF00BF00BFD9
:1046400000BFA8422FD000BF00BF00BF00BF00BF07
:1046500000BF00BF00BF00BF00BF00BF00BF00BF62
:1046600000BF00BF00BF00BF00BF00BF00BF00BF52
:1046700000BF00BF00BF00BF00BF00BF00BF00BF42
:1046800000BF00BF00BF00BF00BF00BF00BF00BF32
:1046900000BF00BF00BF00BF00BF00BF00BF00BF22
:1046A00000BF00BF00BFB8F10108C2D14FF0010A3E
:1046B0000197CDF814A0CDF81CA0D046049D71E759
:1046C000524902930B6060E6504BC3F800C024E7E8
:1046D000069B002B3FF45BAF002A7FF434AF4849C0
:1046E0004B4B494E474C4FF480304FF40037012577
:1046F000C3F88070C1F848032F23C1F808034D6048
:1047000030681E4600BF00BF00BF00BF00BF00BF33
:1047100000BF00BFA0422FD000BF00BF00BF00BF3E
:1047200000BF00BF00BF00BF00BF00BF00BF00BF91
:1047300000BF00BF00BF00BF00BF00BF00BF00BF81
:1047400000BF00BF00BF00BF00BF00BF00BF00BF71
:1047500000BF00BF00BF00BF00BF00BF00BF00BF61
:1047600000BF00BF00BF00BF00BF00BF00BF00BF51
:1047700000BF00BF00BF00BF013EC3D18D6025490F
:104780000A6000BF00BF00BF00BF00BF00BF00BF86
:1047900000BFA0422FD000BF00BF00BF00BF00BFBE
:1047A00000BF00BF00BF00BF00BF00BF00BF00BF11
:1047B00000BF00BF00BF00BF00BF00BF00BF00BF01
:1047C00000BF00BF00BF00BF00BF00BF00BF00BFF1
:1047D00000BF00BF00BF00BF00BF00BF00BF00BFE1
:1047E00000BF00BF00BF00BF00BF00BF00BF00BFD1
:1047F00000BF00BF00BF013BC3D1074B1A70C6E624
:10480000001001400024F400B4210020C42A00203C
:1048100000E100E0C02A0020B12A0020D0F80435D1
:10482000514AC0F84035126850492F2300BF00BFDD
:1048300000BF00BF00BF00BF00BF00BF8A422FD033
:1048400000BF00BF00BF00BF00BF00BF00BF00BF70
:1048500000BF00BF00BF00BF00BF00BF00BF00BF60
:1048600000BF00BF00BF00BF00BF00BF00BF00BF50
:1048700000BF00BF00BF00BF00BF00BF00BF00BF40
:1048800000BF00BF00BF00BF00BF00BF00BF00BF30
:1048900000BF00BF00BF00BF00BF00BF00BF00BF20
:1048A000013BC3D1324B4FF40032C3F800216EE616
:1048B0002F4EDFF8B4E0DFF8B4C04FF48037C0F813
:1048C0004473C0F804734FF40037C6F88071376042
:1048D00001260660DEF800702F2000BF00BF00BF79
:1048E00000BF00BF00BF00BF00BF67452FD000BFA3
:1048F00000BF00BF00BF00BF00BF00BF00BF00BFC0
:1049000000BF00BF00BF00BF00BF00BF00BF00BFAF
:1049100000BF00BF00BF00BF00BF00BF00BF00BF9F
:1049200000BF00BF00BF00BF00BF00BF00BF00BF8F
:1049300000BF00BF00BF00BF00BF00BF00BF00BF7F
:1049400000BF00BF00BF00BF00BF00BF00BF0138F5
:10495000C3D1267006E6074BC3F80090E1E5064C8C
:10496000029323604BE600BFB42100200024F40032
:1049700000E100E0C02A0020C42A0020F0B4554B1A
:10498000554A564E564C4FF480304FF400310125B5
:10499000C2F88010C3F848032F21C3F808035D60F4
:1049A00030680E4600BF00BF00BF00BF00BF00BFA1
:1049B00000BF00BFA0422FD000BF00BF00BF00BF9C
:1049C00000BF00BF00BF00BF00BF00BF00BF00BFEF
:1049D00000BF00BF00BF00BF00BF00BF00BF00BFDF
:1049E00000BF00BF00BF00BF00BF00BF00BF00BFCF
:1049F00000BF00BF00BF00BF00BF00BF00BF00BFBF
:104A000000BF00BF00BF00BF00BF00BF00BF00BFAE
:104A100000BF00BF00BF00BF013EC3D19D6000BF0B
:104A200000BF00BF00BF00BF00BF00BF00BFA0426B
:104A30002FD000BF00BF00BF00BF00BF00BF00BF3E
:104A400000BF00BF00BF00BF00BF00BF00BF00BF6E
:104A500000BF00BF00BF00BF00BF00BF00BF00BF5E
:104A600000BF00BF00BF00BF00BF00BF00BF00BF4E
:104A700000BF00BF00BF00BF00BF00BF00BF00BF3E
:104A800000BF00BF00BF00BF00BF00BF00BF00BF2E
:104A900000BF0139C3D1134E134C1449144D154FA7
:104AA00000203070206008704FF480140B26E02145
:104AB0002880AE703870104DC2F8804182F814130F
:104AC0001460C3F8080582F81113D3F804352B607D
:104AD000F0BC70470010014000E100E0B42100206C
:104AE0000024F400B12A0020C42A0020BC2A00209F
:104AF000A4290020BD2A0020C02A0020074B9B7853
:104B00004BB132B128B10368187C20B959745A618D
:104B10007047072070470820704700BFA429002075
:104B20002DE9F047264CA37882B0002B3CD000281A
:104B30003AD004293CD94369002B35D0814602A8DC
:104B400099F811300026012B00F8016D0CBF884642
:104B5000B04617468A4600F0A7F86378A178227815
:104B60009DF807005D1CEDB2A94208BF3546AA4278
:104B700022D003EB430304EBC3030121114AC3F822
:104B800008901971D2F804256570C3E9032AC3E9B6
:104B9000058700F0AFF80C4B4FF480123046C3F895
:104BA000002102B0BDE8F087082002B0BDE8F08720
:104BB000072002B0BDE8F08700F09CF80420F0E781
:104BC000A42900200010014000E100E0F0B51A4CDB
:104BD000A37883B043B338B343692BB3064602A826
:104BE000002500F8015D357400F05EF86278A77862
:104BF00021789DF80700531CDBB29F4208BF2B466B
:104C0000994214D002EB420204EBC20202219660E8
:104C10001171637000F06EF8084B4FF48012284653
:104C2000C3F8002103B0F0BD082003B0F0BD00F0D0
:104C300061F80420F9E700BFA429002000E100E0AA
:104C400070B5174CA37882B01BB302A8002500F8FA
:104C5000015D00F029F86278A67821789DF80700B8
:104C6000531CDBB29E4208BF2B46994214D002EB84
:104C7000420204EBC202032195601171637000F0DF
:104C800039F8084B4FF480122846C3F8002102B0CF
:104C900070BD082002B070BD00F02CF80420F6E7CB
:104CA000A429002000E100E070B4EFF3108472B694
:104CB0000D4B9A68AAB90D490D4E01259D60D1F89A
:104CC000805035401D60C1F88060D1F884505D602F
:104CD0004FF0FF33C1F88430027004B962B670BC83
:104CE000704701230370F8E7183A002000E100E064
:104CF000FC06FFBD094B9A687AB170B910B4EFF3A6
:104D0000108272B606491C680C605C684C60986042
:104D100002B962B65DF8044B70477047183A00203C
:104D200000E100E0B8B130B4D0E90112521A0468D1
:104D3000D2B2531E2160DBB242B101680A685C1E28
:104D4000551C0D601370E3B2FF2BF6D103680020F1
:104D5000187130BC70470E20704700BFF0B583B0AB
:104D600002AB002503F8015D04461846FFF79CFFDF
:104D7000D4E900311A688A4210D9511E196021689D
:104D8000A3680F6812F8015C0A79268AE068DB1BC9
:104D9000DBB29A4206FB050538BF0B719DF8070090
:104DA000FFF7A8FF284603B0F0BD00BF30B583B0C1
:104DB00002AB002203F8012D054618460C46FFF70A
:104DC00073FF2A681368591C1160E9682A8A641AFB
:104DD000B4FBF2F41C709DF80700FFF78BFF03B0E3
:104DE00030BD00BF826842B110B504464369016816
:104DF000006998470023A36010BD70470EB400B54A
:104E000082B0039929B102AA04AB42F8043D00F034
:104E10008BF802B05DF804EB03B070472DE9F84F52
:104E200088469045174605461E46DDE90AB175D30A
:104E300043464FF00109B3FBF7F39F4209F1010923
:104E4000F9D9B14538BFB14611F0010AAA6802D1BB
:104E5000BBF1000F43D1012402E0013E07FB04F443
:104E6000012EFAD8B8FBF4F18F42F7D92D4E05E0A8
:104E7000B4FBF7F4A4B1B8FBF4F1AA68705C531C5E
:104E8000AB602B689854D5E901329A4204FB118833
:104E9000EED32846FFF7A6FFB4FBF7F4002CEAD1C7
:104EA000BAF1000F15D0BBF1000F12D0CB4510D9CD
:104EB0002024AB682A68591CA960D454D5E9013272
:104EC0009A420BF1FF3B06D2BBF1000F01D0CB455C
:104ED000EFD1BDE8F88F2846FFF784FFF4E78B0792
:104EE00017D42024CB45B6D92B68511CA9609C54FB
:104EF000D5E901329A420BF1FF3B05D2BBF1000F1D
:104F0000A9D0CB45F0D1A6E72846FFF76BFFAA68EA
:104F1000F4E7002E0CBF30242024E3E74FF0010912
:104F20008FE700BF34B70200002900F0F4812DE9BB
:104F3000F04F054685B092460C460B78DFF8A0B5D9
:104F400001E0237893B1013483B1252B15D0AA68F1
:104F50002968501CA8608B54D5E901329A42F0D3DD
:104F60002846FFF73FFF2378002BECD12B7B002B4B
:104F700040F0148105B0BDE8F08F2146002711F8FC
:104F8000012B2D2A00F0E180302A00F0E2802B2A4C
:104F900000F0D2802A2A00F0E080A2F13006F3B2BD
:104FA000092B03D9B8E1A3F130060146084606EB08
:104FB000860310F8012BA2F13004092C02EB430305
:104FC000F1D92E2A00F0D5800023013101E011F83B
:104FD000012B02F0FB0068280C46F8D0253A532A32
:104FE000AFD801A151F822F0A9510200434F0200AD
:104FF000434F0200434F0200434F0200434F020061
:10500000434F0200434F0200434F0200434F020050
:10501000434F0200434F0200434F0200434F020040
:10502000434F0200434F0200434F0200434F020030
:10503000434F0200434F0200434F0200434F020020
:10504000434F0200434F0200434F0200434F020010
:10505000434F0200434F0200434F0200434F020000
:10506000434F0200434F0200434F0200434F0200F0
:10507000434F0200434F0200434F0200434F0200E0
:10508000434F0200434F0200434F0200434F0200D0
:10509000434F0200434F0200434F0200434F0200C0
:1050A000434F0200434F0200434F0200434F0200B0
:1050B000434F0200C3510200434F0200434F02001E
:1050C000434F0200434F0200434F0200434F020090
:1050D000434F0200434F0200434F0200434F020080
:1050E000DD510200FF510200434F0200434F020016
:1050F000434F0200434F0200FF510200434F0200A2
:10510000434F0200434F0200434F0200434F02004F
:10511000434F02004F520200434F0200434F020030
:10512000C3520200434F0200FD520200434F0200EF
:10513000434F0200C351020047F004070C462146CA
:1051400011F8012B2D2A7FF41FAF47F001070C4601
:10515000F5E747F002070C46F1E7DAF800301A1DD0
:10516000CAF8002062781E682E2A04F102007FF43B
:105170002BAF4A78A2F13003092B00F250810023B3
:1051800003EB830302EB430310F8012FA2F130017C
:105190000929A3F13003F3D9014616E7284605B0E3
:1051A000BDE8F04FFFF71EBEAB682A68591CA96026
:1051B0004FF02501D154D5E901329A42FFF4C1AE36
:1051C000CEE6DAF80020111DCAF800101168284652
:1051D000CDE900671022FFF721FEB2E6DAF80020E1
:1051E000131DCAF80030AB6829681278581CA860F3
:1051F000CA54D5E901329A42FFF4A3AEB0E6DAF818
:105200000020111DCAF80010D2F8008088EAE87268
:10521000A2EBE872092A4FF0010107DDAF48A0FBBD
:105220000202D208092A01F10101F7DC994238BFD4
:105230001946894607F00202002E71D12AB1002BCF
:1052400000F04781FA0700F18D8000268AE0DAF845
:105250000020131DCAF80030AB6829681768581C75
:105260003022A860CA54D5E90123934280F02881F6
:105270002A68581C7821A860D154D5E901239342AB
:1052800080F019810F2F03D93A4612090F2AFCD852
:105290004FF0805603E036093FF453AEAB682968FF
:1052A000B7FBF6F2581CA8601BF80200C854D5E9F9
:1052B0000131994206FB1277EDD32846FFF792FDA4
:1052C000E9E7DAF800301A1DCAF80020D3F80080A8
:1052D000FB077ED54746A7EB080917F8013B002BD3
:1052E0005DD0AA682968501CA8608B54D5E90132AA
:1052F0009A42F0D32846FFF775FDECE7DAF8002074
:10530000111DCAF8001011682846CDE900670A226D
:10531000FFF784FD15E6704708460026214650E653
:10532000B8F1000F01DB780700D5013E02B1CBB127
:10533000F90717D4002E88D0B14513D22022039349
:10534000A9682B68481CA8605A54D5E901319942D4
:1053500006F1FF365DD2002E00F0BD80B145EFD1E1
:10536000039B4E46B8F1000FC0F292807A070AD52F
:10537000A9684A1CAA602A682B205054D5E901214B
:10538000914280F0928007F00302022A5FD0CDE9BB
:10539000006741460A222846FFF740FDD1E54E4509
:1053A0007FF6CFAD202705E04E453FF4CAAD002E75
:1053B0003FF4C7ADAB682A68591CA960D754D5E93A
:1053C00001329A4206F1FF36EED32846FFF70AFD76
:1053D000EAE7B8F1000F24D0404606F0F0F807469F
:1053E000BE4220D9FEB14FF0200902E0BE421AD0E1
:1053F000CEB1AB682A68591CA96002F80390D5E9C0
:1054000001329A4206F1FF36F0D32846FFF7EAFC54
:10541000ECE728460292FFF7E5FC029A9BE701467B
:10542000D2E54746DCE708F1FF3818F8013F002BCA
:105430003FF487ADAA682968501CA8608B54D5E951
:1054400001329A42F1D32846FFF7CCFCEDE7002B5E
:105450009DD1002E3BD0B14599D2029323464C46B4
:105460009946AA682B68501C4FF03001A8609954E7
:10547000D5E901329A4206F1FF3605D22EB3B44285
:10548000EFD1029B4C4682E72846FFF7ABFCF5E7DD
:10549000A9684A1CAA602A682D205054D5E9012128
:1054A0009142C8F10008FFF46EAF28460293FFF75F
:1054B00099FC029B67E72846FFF794FCAB68E1E69E
:1054C0002846FFF78FFCAB68D2E6029B4C460026CD
:1054D0005DE71E4646E7039BB7E600BFCDCCCCCCCC
:1054E00034B70200FFF71EBC2DE9F041058ACE1C3F
:1054F000043D2E440746B6FBF5F6FFF72FFC78B3C4
:10550000F6B24FF48073013E0446C5800760838085
:1055100027D08046002509E06379AE4203F10103FC
:105520006371C8F80000076080461AD03846FFF75C
:1055300015FC01350028EFD16679721E14D0234680
:10554000013082421B68FBD11F684EB100252368E1
:105550002146013538461C46FFF728FCAE42F6D1FD
:1055600000242046BDE8F0812768EFE710B404303E
:10557000012350E8002F02EB030140E8001494F0EF
:10558000000FF6D15DF8044B704700BF0146021DC5
:10559000F8B5012052E8004FA4EB000342E80035C3
:1055A00095F0000FF6D113F0FF0300D0F8BD4E794F
:1055B000701E11D00A46013398421268FBD1176859
:1055C000002EF3D000240D6801343846FFF7EEFBBF
:1055D000A6422946F7D1F8BD0F68F3E72DE9F84355
:1055E0000446181DE688B0FBF6F30F46904606FB0E
:1055F000130013B1013B2468FCD1351A454528BF7F
:105600004546B8F1000F15D04FF000090430A8EB63
:10561000050820442A4607EB090105F0BDFF464571
:10562000A944246835464FF0000028BF4546B8F12C
:10563000000FEBD1BDE8F8832DE9F843C6880433A9
:1056400004460F46B3FBF6F0904606FB103110B14E
:1056500001382468FCD1751A454528BF4546B8F184
:10566000000F15D04FF0000904312144A8EB0508C4
:105670002A4607EB090005F08FFF4645A944246838
:1056800035464FF0000128BF4546B8F1000FEBD179
:10569000BDE8F88301600B6843604A68934204BF29
:1056A00000234360704700BF436843B102689168BC
:1056B0000B4443605268934204BF00234360704729
:1056C00030B4184DA5F1F002AB1ADB1003EBD37325
:1056D0005B1002EBC30152F83330984228BF0C46EE
:1056E00005D311E052F8333098420CD221468B1A80
:1056F000DB1003EBD3735B108A4202EBC304F1D3DC
:10570000094830BC70470D46984204D904F108029C
:10571000AA42D9D3F4E76068034B002808BF1846B3
:10572000EFE700BF54B8020050B7020010B40023E6
:10573000012401E0202B0AD004FA03F2024299B2BC
:1057400003F10103F6D008465DF8044B70474FF6AD
:10575000FF7108465DF8044B704700BFA0B199B1D6
:1057600030B40238002402E00134202C0AD030F892
:10577000025F9542F8D1012202FA04F40A6823B1CB
:1057800022430A6030BC7047704722EA04020A6074
:1057900030BC704770B49DF80C60D0B1C9B1C2B1D3
:1057A0000238002402E00134202C12D030F8025FCD
:1057B0009D42F8D1012301EB820203FA04F4E04395
:1057C000043A04393EB951F8043F034091420B605A
:1057D000F9D170BC704751F8043F234391420B60EC
:1057E000F7D051F8043F234391420B60F3D1F0E727
:1057F000F0B491B100252B46012606FA03F41442B9
:1058000005D000EB450431F81370A7800135013352
:10581000202BF2D10560F0BC70470D460560F0BC4E
:10582000704700BF30B44FF0A04303224FF400355F
:105830004FF480244FF400204FF48011C3F8442724
:10584000C3F84827C3F84C27C3F85027C3F80855B6
:10585000C3F80845C3F80805C3F8081530BC7047FD
:1058600060B910B5064CA3683BB1D3E90023002012
:10587000A2609847A368002BF7D110BD704700BF06
:10588000C82A002010B5012882B029D022D30328CD
:105890001ED10721002000F093F802A80023264C17
:1058A00000F8013DFFF700FAE368013BE360E368BD
:1058B00053B9224B01221A604FF08042D2F81834BB
:1058C00013F48033FAD1A3709DF80700FFF712FAA2
:1058D00002B010BD1A4B0122C3F8802002B010BDE7
:1058E00002A80023144C00F8013DFFF7DDF92378EE
:1058F00053B1E3689DF8070001330122E360A27011
:10590000FFF7F8F902B010BD0D4A6360A360236190
:10591000E360106810F001000AD005F089FC20B99E
:105920004FF080430122C3F8182501232370E0E7DC
:10593000072100F045F8F0E7C82A00200C000040DD
:1059400000E100E010B51B4B1A6882B0AAB100223A
:105950001A601B6800934FF080430122164C009997
:10596000C3F80823A36862703BB1D3E90023002089
:10597000A2609847A368002BF7D1104B1A68B2B108
:1059800000221A601B6801934FF0804302220A4CE8
:105990000199C3F8082323690122A2703BB1D3E91E
:1059A00000230120226198472369002BF7D102B020
:1059B00010BD00BF00010040C82A002004010040C3
:1059C0004901002810B4C9B2C3B215DB00F160422E
:1059D00002F5614282F800134009800000F1604046
:1059E00000F5614003F01F0201239340C0F88031AD
:1059F00003605DF8044B7047024A03F00F04224431
:105A00001176E9E7FCEC00E070B42E4D2E1883B05F
:105A100096F93030072B1CDD2B4493F848309B0956
:105A2000032B41D0012B14BF4FF440314FF4003110
:105A3000800000F1A040D0F8002722F44032C0F8E6
:105A40000027D0F800370B43C0F8003703B070BC14
:105A50007047DAB2072AF9D8980000F1804000F5C3
:105A6000C04003F14002D0F81045920092B244F0D9
:105A7000010402F18042C0F8104502F5C042002046
:105A80000190019C10600029E0D096F9302055F873
:105A90002220002ADAD001220B4902FA03F3C1F8CE
:105AA000043303B070BC70474FF0A043D3F81035F7
:105AB000C34013F0010F0CBF4FF400314FF44031DD
:105AC000B6E700BFDC2A002000600040164B03440C
:105AD00093F93030072B18DCDAB2072A14D810B447
:105AE0009A0002F1804202F5C042104CD2F8100533
:105AF000012120F0010001FA03F3C2F81005C4F8F7
:105B000008335DF8044B70477047800000F1A040F7
:105B1000D0F8003723F44033C0F80037D0F800370E
:105B2000C0F80037704700BFDC2A0020006000404A
:105B30002DE9F04186B00023A14A01931668012E99
:105B400000F054811E469F4B1A68012A00F05D81C7
:105B50009D4B1A68012A00F06A819C4B1A68012A41
:105B600000F077819A4B1A68012A00F08481994BE2
:105B70001A68012A00F09181974B1A68012A00F0F7
:105B80009E81964B1A68012A0CD0954B1B68012BFD
:105B900000F0A58116F0FF0F15D1002E30DB06B006
:105BA000BDE8F0818F4AD2F804231706EDD5002214
:105BB0001A601A6804926033049A1B68012B46F03D
:105BC000800600F08C81884F00240125A30003F19A
:105BD0008043354203F5C0434FEA45050BD0D3F867
:105BE000100557F82420D3F81015C0F30420C1F392
:105BF000014102B190470134082CE7D1002ECEDAE2
:105C000000224FF0FF33CDE90223774C012602AF8B
:105C100094F950305D1C2CD0DBB223F0C00006AAF2
:105C20004FEAD00C02EB0C0E03F007021EF80C1C1E
:105C300006FA02F211421CD02518990995F9303064
:105C400054F82330002B00F09881032900F098814C
:105C50004FEA800C0CF1A04C1EF8145CDCF800E755
:105C60001540CEF3014E40F05C81BEF1030F00F011
:105C7000DE81002594F95130581C2DD0DBB223F081
:105C8000C00006AA4FEAD00802EB080E03F0070195
:105C90001EF80C2C06FA01FC12EA0C0F1CD022187C
:105CA000990992F9303054F82330002B00F05B81D1
:105CB000032900F05B81820002F1A0421EF8148CDF
:105CC000D2F800E718EA0C0FCEF3014E40F036810F
:105CD000BEF1030F00F0A68194F95230591C2DD06B
:105CE000DBB223F0C00006AA4FEAD00802EB080E90
:105CF00003F007011EF80C2C06FA01FC12EA0C0F47
:105D00001CD02218990992F9303054F82330002B16
:105D100000F03C81032900F03C81820002F1A042A6
:105D20001EF8148CD2F800E718EA0C0FCEF3014EDF
:105D300040F0E380BEF1030F00F06E8194F9533020
:105D40005A1C2DD0DBB223F0C00006AA4FEAD008BF
:105D500002EB080E03F007011EF80C2C06FA01FCFA
:105D600012EA0C0F1CD02218990992F9303054F81D
:105D70002330002B00F0ED80032900F0ED8082003D
:105D800002F1A0421EF8148CD2F800E718EA0C0FBA
:105D9000CEF3014E40F0BC80BEF1030F00F0008155
:105DA000002D3FF4FCAE4FF0A043019AD3F810351C
:105DB00093423FF4F4AE029A0193039228E700BFA6
:105DC0000061004004610040086100400C61004037
:105DD0001061004014610040186100401C610040E7
:105DE0007C61004000600040DC2A00209A49D1F824
:105DF000041311F0010170D0136013680493049B25
:105E0000964B1A68012A7FF4A3AE934AD2F8042372
:105E100097077FF59DAE00221A601B680493049BD0
:105E20008F4B1A68012A46F002067FF496AE8A4A22
:105E3000D2F8042355077FF590AE00221A601B6844
:105E40000493049B874B1A68012A46F004067FF4EA
:105E500089AE814AD2F8042314077FF583AE00226D
:105E60001A601B680493049B7F4B1A68012A46F052
:105E700008067FF47CAE784AD2F80423D0067FF57A
:105E800076AE00221A601B680493049B774B1A6855
:105E9000012A46F010067FF46FAE6F4AD2F8042351
:105EA00091067FF569AE00221A601B680493049B7B
:105EB0006F4B1A68012A46F020067FF462AE664AEC
:105EC000D2F8042352067FF55CAE00221A601B68EC
:105ED0000493049B46F0400653E60E4633E6654BBA
:105EE00000221A601B6805934FF0A043059AD3F86F
:105EF0001035019346F000464CE6BEF1020F7FF4E8
:105F00001DAF032963D0002B3FF418AF984715E766
:105F1000BEF1020F7FF444AF032969D0002B54D1A6
:105F20003EE7BEF1020F7FF4A4AE032900F091809A
:105F30000025002B3FF49EAE98479BE6BEF1020F72
:105F40007FF4CAAE032956D0002B3FF4C5AE984764
:105F5000C2E603297FF424AF17F8082042EA0C02B6
:105F600007F808200BE703297FF4B6AE17F80820DE
:105F700042EA0C0207F808209DE603297FF479AE77
:105F800017F80C50154307F80C5061E603297FF40D
:105F9000D5AE17F8082042EA0C0207F80820BCE644
:105FA0000329BBD14FF4003ED2F800C72CF4403C8B
:105FB000C2F800C7D2F800C701354CEA0E0CEDB2AA
:105FC000C2F800C7002B3FF4EEAE9847E8E64FF466
:105FD000403ED2F800C72CF4403CC2F800C7D2F8CB
:105FE00000C701354CEA0E0CEDB2C2F800C78AE7D3
:105FF0004FF4403ED8E74FF4403ED2F800C72CF4AF
:10600000403CC2F800C7D2F800C701354CEA0E0C7C
:10601000EDB2C2F800C797E703297FF474AF4FF4DD
:10602000003ED6E703298FD14FF4003EE5E7032970
:106030007FF47FAF4FF40035DCF8002722F44032C4
:10604000CCF80027DCF800272A43CCF800270125EC
:106050006FE74FF44035EFE7006000400461004017
:10606000086100400C610040106100401461004074
:10607000186100407C610040F0B506796F4C7601F4
:10608000A31987B0DD7E002D40F089804D7F1D77FC
:106090000B685D1C0CD001254FF0A04705FA03F3F7
:1060A000C7F808350B6803F5E073032547F823505C
:1060B0004B685F1C06D003F5E0734FF0A045002746
:1060C00045F82370037905688F6904EB43131B7F40
:1060D000C5F82475002B46D00F7D4B7D05683B43EA
:1060E000C5F86C35D1E900750368C3F80C75C3F8C1
:1060F00014550B7D012B7FD0A31905465A600B69FF
:10610000A351EAB10379097F026804EB43131B7FB3
:10611000002B4BD1C2F81C31D2F81C012A68009028
:106120000098C2F84431D2F844212B680192444AC5
:106130000198C3F80423286840F30730FFF740FCB8
:106140002B792A6804EB43131B7F5BB30823C2F847
:106150000035344400200123E376E0752076A075F5
:10616000A07607B0F0BD91F814C04D7D076845EAF0
:106170000C05C7F86C55D1E900C70568C5F814755A
:10618000C5F80CC50D7D012DB6D18D686F1C3DD0B5
:1061900005F5E0754FF0A04747F8253036E00820B8
:1061A00007B0F0BD0423C2F80035D2E70023C2F8DF
:1061B0001031D2F810012A6802900298C2F82031FA
:1061C000D2F820012A6803900398C2F82431D2F84B
:1061D00024012A6804900498C2F84431D2F844217A
:1061E0002B680592174A0598C3F80423286840F3E2
:1061F0000730FFF7E5FBA3E78B685D1C06D003F5CE
:10620000E0734FF0A045002745F82370CB685D1C74
:106210000DD001254FF0A04705FA03F3C7F8083564
:10622000CB6803F5E073032547F82350CB68056876
:106230008F68C5F80835C5F810755DE7342B002068
:106240008000020010030200F0B404793C4B0168A6
:1062500064011A19127F002A6DD00022C1F80025AE
:106260001A19017955680268B5B103EB4111097F2C
:10627000002963D13349C2F808130268324E120B69
:1062800051B24909203102F01F02012505FA02F23C
:1062900046F8212001790268D2F80C75D2F814650D
:1062A00003EB41114FF0FF3C097FB1B3D2F8081561
:1062B000D2F81055C2F80CC5C2F814C50268C2F86D
:1062C00008C5C2F810C57A1C06D007F5E0774FF074
:1062D000A042022042F82700771C06D006F5E0769F
:1062E0004FF0A042022042F82600681C06D005F5B7
:1062F000E0754FF0A042022042F825004A1C06D06B
:1063000001F5E0714FF0A042022042F82100234441
:106310000022DA765A60F0BC7047D2F80815D2F83D
:106320001055C2F814C5C2F80CC50268C2F808C5F9
:10633000C2F810C5C7E7C1F8002591E703499AE7FD
:10634000342B00208402020000E100E01003020070
:10635000F0B50379524C5B01E51887B02D7F25B16C
:1063600001F06045B5F1005F58D123449E7D002EB9
:1063700057D19A7599609E8205796D016219137FD4
:1063800013BB0168C1F81C31D1F81C610168049687
:106390000126049F8E600168D2F808C0C1F81C3144
:1063A000D1F81C310593059B968A938A5768B6B23B
:1063B00001331CF806609BB29382C1F81C65002F64
:1063C00032D0002007B0F0BD03689168C3F82061A7
:1063D000D3F8203101930368019FC3F85861D3F8C3
:1063E000586103680296967D029FC3F84415C3F86E
:1063F00048650368012199605368002BE1D1036867
:1064000001E0002949D1D3F82021D3F85811002AFE
:10641000F7D0002914BF0F20002039E0102007B06A
:10642000F0BD112007B0F0BD967D938A9E4222D91F
:10643000016804E0938A9BB2B3F5807F03D0D1F862
:106440001C31002BF6D0938A9BB2B3F5807FECD041
:10645000C1F81C71D1F81C310393039BB2F814E00E
:10646000938A1FFA8EFE01331CF80EE09BB29382D2
:10647000C1F81CE5D9E7938A9BB2B3F5807F0CD0B5
:106480000268D2F81C31002BFBD00123D36000201E
:106490002C440023A37507B0F0BD0F20F8E700BF20
:1064A000342B0020F0B5A94C237F8FB0002B73D183
:1064B000A74AD2F80413890546D4A54BD3F8042380
:1064C000520704D5D3F80821002A40F0D480A04B0D
:1064D000D3F81C21BAB1A18AA27D8A4200F2B98008
:1064E0000021C3F81C11D3F81C310593059B52B150
:1064F000A3688DF82810A1750B938DF83020D4E98E
:1065000000130AA89847924BD3F84421D2B1002235
:10651000C3F84421D3F84411A27E04910499002ABF
:1065200040F09480E37D6BB10023617EE268E37507
:1065300001238DF830108DF828300B92D4E9001328
:106540000AA898470FB0F0BDD2F824110029B4D0A2
:10655000C2F82431D2F82411A37E07914FF40171BF
:106560000798C2F808130BB901235360784A022335
:106570008DF82830D2F88034C2F88034E07DE268AB
:106580000D9300238DF83000E375237621680B927C
:1065900063680AA898479AE76D4BD3F82421002A2C
:1065A00000F097800022C3F82421D3F8241102912F
:1065B00002218DF828100299D3F88014C3F88014B2
:1065C0000D91D3F83C15E3688DF830100B93E2750C
:1065D0002276216863680AA898475D4BD3F8442166
:1065E000B2B10022C3F84421D3F84401E17D019007
:1065F000019869B1D3F83C35E1688DF8303001235A
:106600000B918DF82830E275D4E900130AA8984759
:106610004F4BD3F82021002A94D00022C3F8202128
:10662000D3F82001A17D0090009800298AD0D3F8EA
:106630004C15A3688DF830100B938DF82820A275A7
:10664000D4E900130AA898470FB0F0BD01221A60E0
:1066500068E70022C3F81C21D3F81C210692069A91
:10666000A18AA28AA06889B20132415C92B2A28258
:10667000C3F81C1547E7E27D002A54D00022C3F876
:106680000821D3F808210892089AE168627ED3F8BD
:1066900018358B54637EE27D0133DBB26376637E13
:1066A00093427FF414AF237E2168002B52D0E2681E
:1066B000657E2069E3750B9200230122E06023765A
:1066C00063768DF830508DF8282063680AA89847C3
:1066D000FDE6D3F8101100293FF47FAFC3F8102175
:1066E000D3F8101103910399D3F83C15E07DC9B29A
:1066F00088427FF472AF257EE768D4E90016DDB1E9
:10670000D3F800C2E5752CF020052276C3F80052BC
:10671000012223698DF83000E3600B978DF8282063
:106720000AA8B04759E7C3F80821D3F8081109911E
:106730000999D3F81835B2E701238DF83000E575D3
:106740000B978DF828300AA8B04746E7342B002075
:1067500000200040A37E13B90A4B01225A60094A67
:10676000E06863684FF40175C2F80853627E8DF8E3
:106770003020002501220B90E5758DF828200AA80D
:106780009847A4E6002000402DE9F0414479544D9B
:10679000E6003719BF0005EB070C9CF81CE0BEF1C2
:1067A000000F40F08F80EA51CCF804300B7B91F859
:1067B00000C0012B4FF0A0474FF0010303FA0CF388
:1067C00094BFC7F80C35C7F808350B784FF0A04ECA
:1067D00003F5E0734FF0010C4EF823C04F78FF2F04
:1067E00068D007F5E0780CFA07F34FF0030CCEF809
:1067F0000C354EF828C08B78FF2B60D003F5E07C79
:106800009E464FF0A0434FF0040843F82C8091F8C7
:1068100003C0BCF1FF0F0FD04FF0A048012303FAD3
:106820000CF3C8F80835CB7803F5E0734FF0030C90
:1068300048F823C091F803C0437903EBC30305EB89
:10684000830383F81EC0036891F800C0C3F808C52D
:10685000C3F80C75C3F810E58F68C3F824754F7B37
:1068600091F80CC0003718BF0127BCF1020F33D0DC
:10687000BCF1030F2DD0BCF1010F01D147F002078D
:10688000C3F854754F79C3F8C075F2B14027072299
:10689000C3F80473C3F80025097990F90400FFF7E1
:1068A0008FF8344405EB8405012300202B776877AB
:1068B000BDE8F0818B78FF2B4FF0FF379ED14FF072
:1068C000FF3EA4E70820BDE8F0810722C3F80025B9
:1068D000E7E747F00607D3E747F00407D0E700BF34
:1068E000542B00202DE9F0434479444DE7003E1934
:1068F000B60005EB060E83B09EF81D809DF828C0FB
:10690000B8F1000F74D1AE5916B101268EF81D6092
:106910000C264FF0240E1EFB046E05EB0E083E19EC
:1069200045F80E1005EB860688F80420C8F80830F4
:1069300088F80CC096F821E096F81E8006F1200930
:106940000EF0FC066FF38206B8F1FF0F89F80160C4
:1069500006D001264FF0A04E06FA08F6CEF80C65D8
:1069600021B101F06046B6F1005F25D123B103F0FB
:106970006046B6F1005F1FD106680020C6F84415D6
:10698000C6F84825C6F83435C6F838C5C6F8180123
:10699000D6F81831019301223B190199C6F8500528
:1069A000C6F84005326155F8233073B14023C6F86C
:1069B000043303B0BDE8F0833C4405EB84050023B9
:1069C0006B77102003B0BDE8F083D6F81831002BA8
:1069D000FBD03C4405EB8405AB7FFF2B0CD00122A0
:1069E0004FF0A04102FA03F3C1F808350020E9E7AF
:1069F000112003B0BDE8F0830020E3E7542B002012
:106A00000F4BD3F8182102B9704700210D4AC3F883
:106A10001811D3F81811937F82B0FF2B01910199BF
:106A200006D001214FF0A04001FA03F3C0F8083569
:106A3000002353771372D2E90031034802B018479C
:106A400000300040542B00205C2B00204FF04023EE
:106A5000D3F8182102B9704700210E4AC3F8181163
:106A6000D3F8181192F8423082B0FF2B01910199AE
:106A700006D001214FF0A04001FA03F3C0F8083519
:106A8000002382F8413082F82C30D2E909310248E3
:106A900002B01847542B0020802B002008B5FDF7CA
:106AA0006DFF08B1FDF7A6FAFEF7BCFE02F0CEF9C5
:106AB00000F0DAF80020FCF705FE08B1FDF79AFABD
:106AC000FCF7E4FC00F09CF802F09EFE104AC8219E
:106AD0000820FDF7D3FA08B1FDF78CFA02F0B0FEFA
:106AE00002F0D6FE02F0E2FE02F0F4FE02F01EFF1B
:106AF00002F070FE01F0ACFF02F0D8F9FDF7C6F825
:106B00000028FBD1FDF74CFBFDF7C0F8F6E700BF0E
:106B10009C2B0020014B01221A7070472C3800205A
:106B200030B585B04FF0A0438DF80F104FF0805274
:106B3000002854D1C3F80C2500252C4C2C4B2D4893
:106B4000009501220DF10F012570FFF7CBFE08B172
:106B500048E020BF2378002BFBD0274B27491A6839
:106B60000A2300BF00BF00BF00BF00BF00BF00BFBF
:106B700000BF8A422FD000BF00BF00BF00BF00BFD0
:106B800000BF00BF00BF00BF00BF00BF00BF00BF0D
:106B900000BF00BF00BF00BF00BF00BF00BF00BFFD
:106BA00000BF00BF00BF00BF00BF00BF00BF00BFED
:106BB00000BF00BF00BF00BF00BF00BF00BF00BFDD
:106BC00000BF00BF00BF00BF00BF00BF00BF00BFCD
:106BD00000BF00BF00BF013BC3D105B030BDC3F84B
:106BE0000825A9E7FDF706FAB4E700BF2C38002016
:106BF000C48A002088BB0200B42100200024F400D5
:106C000030B5164B0FCB85B06C4684E80F001F22C1
:106C100041F6045021464FF0805503248DF803209F
:106C2000ADF8000000230E4A0E4802958DF80C4086
:106C3000FFF7AAFD08B1FDF7DDF94FF0A0430322ED
:106C40004FF080504FF08041C3F80805C3F870271B
:106C5000C3F80C15C3F8782705B030BD78BB020027
:106C6000156B020088BB02004FF080430121002019
:106C7000C3F818151A46C3F804019960D2F8043114
:106C8000002BFBD0704700BF2DE9F0472C4C2D4B5B
:106C900084FB0024A4EBE074A7003D196D0103EB15
:106CA00005080E4600202A215FFA84FA18F806909B
:106CB000FFF736FF00210120FFF732FF5146012088
:106CC000FFF72EFF00210120FFF72AFF5146012088
:106CD000FFF726FF2B210020FFF722FF5FFA86FA3D
:106CE00000210120FFF71CFF51460120FFF718FF8C
:106CF00000210120FFF714FF51460120FFF710FF8C
:106D00002C210020FFF70CFF0F4B2B449B5D1BB980
:106D10000E4B1D44AD5D5DB149460120FFF700FFFC
:106D20000B483C4400EB44140023A355BDE8F08716
:106D300029460120FFF7F4FE08F80650F0E700BFEF
:106D400056555555C88A0020E46F0020243A00208B
:106D5000045500202DE9F0472B4C2C4B84FB0024DC
:106D6000A4EBE074A7003E19760103EB06080D467C
:106D700000202A215FFA84FA18F80590FFF7D0FE68
:106D800000210120FFF7CCFE51460120FFF7C8FE8D
:106D900000210120FFF7C4FE51460120FFF7C0FE8D
:106DA0002B210020FFF7BCFE5FFA85FA00210120AD
:106DB000FFF7B6FE51460120FFF7B2FE0021012089
:106DC000FFF7AEFE51460120FFF7AAFE2C2100205E
:106DD000FFF7A6FE0E4B1E44765D86B931460120B4
:106DE000FFF79EFE08F805600A4B0B4A3C4464011D
:106DF00022441C44002353556355BDE8F08749469F
:106E00000120FFF78DFEEFE756555555C88A002043
:106E100004550020243A0020E46F00202DE9F04FB3
:106E20002A2187B00020FFF77BFE00210120FFF719
:106E300077FE00210120FFF773FE00210120FFF7FC
:106E40006FFE7F210120FFF76BFE2B210020FFF753
:106E500067FE00210120FFF763FE00210120FFF7FC
:106E60005FFE00210120FFF75BFE634F634E9F2111
:106E70000120FFF755FE00242C210020FFF750FED3
:106E80003C60346000210120FFF74AFE3368013383
:106E90009F2B3360F6DD3B6801337F2B3B60F0DDD9
:106EA00057494B4203F003020093534219440491A3
:106EB0005449194405915449194401915349CB1837
:106EC0004FF0000B029302F5D753039394465B46B1
:106ED000002A7DD004990598019C029D01F80C3090
:106EE000012A00F80C3004F80C3005F80C3073D08F
:106EF00001EB0C0501996B7000EB0C0401EB0C002D
:106F0000029963706144032A43704B706FD1AB7078
:106F1000A37083708B704FF09D0A9646C2F1A00853
:106F2000374A02EB0C05374A02EB0C04364A02EBF7
:106F30000C00364A4FEA980902EB0C01002201329C
:106F40004A4545F8043B44F8043B40F8043B41F80B
:106F5000043BF4D328F0030290459644AAEB020ABE
:106F600028D027490BEB8B0252018D18254905F8D3
:106F70000E308C18244904F80E308818234900F884
:106F80000E300A44BAF1010F02F80E300EF1010181
:106F900010D0BAF1020F6B546354435453540EF1A2
:106FA000020E07D005F80E3004F80E3000F80E304F
:106FB00002F80E30009A03990CF1A00CA03A8C450F
:106FC0000BF1010B00920BD002F00302002A81D1D9
:106FD0004FF0A00A9646A1E74FF09F0A96469DE71C
:106FE000A0222B2332603B6007B0BDE8F08F4FF04A
:106FF0009E0A4FF0020E91E7483800203C380020EE
:10700000C88A0020E46F002004550020243A0020A4
:107010002DE9F8432C4B2D4E83FB0023A3EBE074AA
:107020004FEA840808EB040304EB440206EB431325
:10703000801A01280F465D5C42D002283DD0C8B3BB
:107040002A2100205FFA84F9FFF76AFD0021012060
:10705000FFF766FD49460120FFF762FD0021012090
:10706000FFF75EFD49460120FFF75AFD2B21002066
:10707000FFF756FD5FFA87F900210120FFF750FD69
:1070800049460120FFF74CFD00210120FFF748FD94
:10709000444449460120FFF743FD06EB44142C21EC
:1070A0000020FFF73DFD29460120FFF739FDE5559A
:1070B000BDE8F88345F0E005C2E745F00305BFE70A
:1070C00045F01C05BCE700BF56555555C88A002041
:1070D0002DE9F84F0A9F394D012F00EB020A0E46A9
:1070E000286050D03FBB504523DCDFF8D4B0DFF838
:1070F000D490DFF8D480CC180127A642CBF80060EA
:1071000013DC3146FFF784FF2868DBF8002088FB9A
:107110000013A3EBE07303EB8303511C09EB431350
:10712000A1429F54CBF80010ECDD0130504528609F
:10713000E3DDBDE8F88F5045FBDCDFF884B0DFF815
:107140008C90DFF88480CC18FFB2A642CBF80060A8
:1071500013DC3146FFF75CFF2868DBF8002088FB72
:107160000013A3EBE07303EB8303511C09EB431300
:10717000A1429F54CBF80010ECDD0130504528604F
:10718000E3DDBDE8F88F5045D3DCDFF834B0CC1830
:10719000B442CBF800600ADB3146FFF7DBFDDBF8D9
:1071A000001028680131A142CBF80010F5DD013054
:1071B00050452860ECDDBDE8F88F00BF4038002066
:1071C0004C380020E46F002056555555243A0020D5
:1071D0002DE9F04F87B05300541E059358D4012277
:1071E000C3F101038A468146CDE90322002509E067
:1071F000039A05990232013C0392AC42A2EB0102D0
:10720000134445DB0AEB050209EB040611460AEBC1
:107210000407304609EB050802930192A9EB050B20
:10722000FFF732FD39464046FFF72EFD39465846F6
:10723000FFF72AFD019AA9EB04071146384601978A
:10724000FFF722FD019AAAEB050710463946AAEB83
:1072500004020192FFF718FD019A58461146934621
:10726000FFF712FD59464046FFF70EFD39463046FE
:10727000FFF70AFD029B002BBADC049A1344002B93
:1072800002F1020205F101050492B1DCAC42B9DA67
:1072900007B0BDE8F08F00BF2DE9F04F8BB0530071
:1072A0000993B2F10109C3F10103019300F1918047
:1072B00001230893059398460023CDE90601464A29
:1072C00000930CE0059B0999023305935B1A019921
:1072D0001944009B019109F1FF39994579DB069C1E
:1072E000079D009F049223464B4404EB070AE919CB
:1072F000184605EB0906CDE90213FFF789FE504653
:1073000000973146E71BFFF783FE38463146FFF70B
:107310007FFE009B0299A4EB090B5846EC1AFFF77D
:1073200077FEA5EB090558462146FFF771FE384662
:107330002946FFF76DFE50462946FFF769FE039B7D
:1073400021461846FFF764FEDDE9033282FB0301A4
:1073500082FB0B0CA1EBE37382FB0AE082FB07E1EB
:10736000A1EBE777ACEBEB7B1C49A0EBEA7A03EBF4
:1073700083030BEB8B0B0AEB8A0A07EB870701EB06
:10738000431301EB4B1B01EB4A1A01EB4717029920
:1073900003F801800AF8068007F806800BF80180E0
:1073A0000BF8048007F805800AF8058003F80480CC
:1073B000019B002B86DC089900980B4401300231B8
:1073C000002B0193009008913FF77CAF009B9945FB
:1073D00085DA0BB0BDE8F08F5655555504550020A1
:1073E0002DE9F047CE4DCF4CCF4EDFF8408306203D
:1073F00028604FF030090127C4F800903021FFF7D2
:1074000007FE2868226888FB0013A3EBE07303EBF8
:107410008303511C06EB431334299F542160EEDD96
:10742000013018282860E7DD0620DFF80083286097
:107430004FF030090127C4F800903021FFF7E8FD34
:107440002868226888FB0013A3EBE07303EB830337
:10745000511C06EB431342299F542160EEDD01309D
:107460000A282860E7DD0620DFF8C08228604FF098
:1074700042090127C4F800904221FFF7C9FD28689E
:10748000226888FB0013A3EBE07303EB8303511C1A
:1074900006EB431346299F542160EEDD0130182886
:1074A0002860E7DD1420DFF8848228604FF042096D
:1074B0000127C4F800904221FFF7AAFD286822683E
:1074C00088FB0013A3EBE07303EB8303511C06EB73
:1074D000431354299F542160EEDD013018282860A1
:1074E000E7DD0620DFF8448228604FF054090127C9
:1074F000C4F800905421FFF78BFD2868226888FBB0
:107500000013A3EBE07303EB8303511C06EB43135F
:1075100058299F542160EEDD013018282860E7DDEE
:107520002020DFF8088228604FF030090127C4F8D6
:1075300000903021FFF76CFD2868226888FB00135B
:10754000A3EBE07303EB8303511C06EB43133429D5
:107550009F542160EEDD013032282860E7DD2620CF
:10756000DFF8C88128604FF030090127C4F8009087
:107570003021FFF74DFD2868226888FB0013A3EB3C
:10758000E07303EB8303511C06EB431358299F540C
:107590002160EEDD01302A282860E7DD3920DFF8A0
:1075A0008C8128604FF030090127C4F80090302109
:1075B000FFF72EFD2868226888FB0013A3EBE07319
:1075C00003EB8303511C06EB431334299F542160C2
:1075D000EEDD01304B282860E7DD3920DFF84C81F3
:1075E00028604FF030090127C4F800903021FFF7E0
:1075F0000FFD2868226888FB0013A3EBE07303EB00
:107600008303511C06EB431358299F542160EEDD80
:1076100001303D282860E7DD4820DFF81081286030
:107620004FF030090127C4F800903021FFF7F0FC3B
:107630002868226888FB0013A3EBE07303EB830345
:10764000511C06EB431358299F542160EEDD013095
:107650004C282860E7DD3920DFF8D08028604FF023
:1076600042090127C4F800904221FFF7D1FC2868A5
:10767000226888FB0013A3EBE07303EB8303511C28
:1076800006EB431346299F542160EEDD01304B2861
:107690002860E7DD5320DFF8948028604FF0300940
:1076A0000127C4F800903021FFF7B2FC2868226857
:1076B00088FB0013A3EBE07303EB8303511C06EB81
:1076C000431334299F542160EEDD01306528286082
:1076D000E7DD5320DFF8548028604FF030090127A0
:1076E000C4F800903021FFF793FC2868226888FBDB
:1076F0000013A3EBE07303EB8303511C06EB43136E
:1077000058299F542160EEDD013057282860E7DDBD
:107710006120DFF8188028604FF03009012707E06A
:10772000403800204C380020E46F00205655555555
:10773000C4F800903021FFF76BFC2868226888FBB2
:107740000013A3EBE07303EB8303511C06EB43131D
:1077500042299F542160EEDD013065282860E7DD75
:107760005320DFF8048128604FF042090127C4F854
:1077700000904221FFF74CFC2868226888FB001328
:10778000A3EBE07303EB8303511C06EB4313462981
:107790009F542160EEDD013065282860E7DDDFF8C9
:1077A000CC80304FDFF8C8A054204221C8F8000038
:1077B00039604FF00009CAF8009000231844FFF721
:1077C00027FCDAF80030D8F8000039680133042BC0
:1077D000CAF80030F2DD013101305829C8F8000044
:1077E0003960E8DD6D20DFF8808028604FF03009D7
:1077F0000127C4F800903021FFF70AFC28682268AE
:1078000088FB0013A3EBE07303EB8303511C06EB2F
:10781000431334299F542160EEDD01307F28286016
:10782000E7DD7320DFF8408028604FF03009012742
:10783000C4F800903021FFF7EBFB2868226888FB32
:107840000013A3EBE07303EB8303511C06EB43131C
:1078500058299F542160EEDD013077282860E7DD4C
:10786000BDE8F08730380020565555556438002063
:10787000503800202DE9F843CE4DCF4CCF4EDFF8E5
:107880004083062028604FF030090127C4F800909B
:107890003021FFF7BDFB2868226888FB0013A3EBAB
:1078A000E07303EB8303511C06EB431334299F540D
:1078B0002160EEDD013018282860E7DD0620DFF8C2
:1078C000008328604FF030090127C4F80090302170
:1078D000FFF79EFB2868226888FB0013A3EBE07388
:1078E00003EB8303511C06EB431358299F5421607B
:1078F000EEDD01300A282860E7DD0620DFF8C082CF
:1079000028604FF054090127C4F800905421FFF774
:107910007FFB2868226888FB0013A3EBE07303EB6E
:107920008303511C06EB431358299F542160EEDD5D
:10793000013018282860E7DD2020DFF884822860E5
:107940004FF030090127C4F800903021FFF760FBA9
:107950002868226888FB0013A3EBE07303EB830322
:10796000511C06EB431358299F542160EEDD013072
:1079700024282860E7DD2020DFF8448228604FF0CB
:1079800054090127C4F800905421FFF741FB2868EF
:10799000226888FB0013A3EBE07303EB8303511C05
:1079A00006EB431358299F542160EEDD0130322845
:1079B0002860E7DD3920DFF8088228604FF03009C1
:1079C0000127C4F800903021FFF722FB28682268C5
:1079D00088FB0013A3EBE07303EB8303511C06EB5E
:1079E000431334299F542160EEDD01304B28286079
:1079F000E7DD3920DFF8C88128604FF03009012722
:107A0000C4F800903021FFF703FB2868226888FB48
:107A10000013A3EBE07303EB8303511C06EB43134A
:107A200058299F542160EEDD01303D282860E7DDB4
:107A30003920DFF88C8128604FF044090127C4F811
:107A400000904421FFF7E4FA2868226888FB0013BD
:107A5000A3EBE07303EB8303511C06EB43134829AC
:107A60009F542160EEDD01304B282860E7DD39208E
:107A7000DFF84C8128604FF054090127C4F80090CA
:107A80005421FFF7C5FA2868226888FB0013A3EB8E
:107A9000E07303EB8303511C06EB431358299F54F7
:107AA0002160EEDD01304B282860E7DD5320DFF850
:107AB000108128604FF030090127C4F80090302170
:107AC000FFF7A6FA2868226888FB0013A3EBE0738F
:107AD00003EB8303511C06EB431334299F542160AD
:107AE000EEDD013065282860E7DD5320DFF8D08027
:107AF00028604FF030090127C4F800903021FFF7CB
:107B000087FA2868226888FB0013A3EBE07303EB75
:107B10008303511C06EB431358299F542160EEDD6B
:107B2000013057282860E7DD6220DFF89480286064
:107B30004FF030090127C4F800903021FFF768FAB0
:107B40002868226888FB0013A3EBE07303EB830330
:107B5000511C06EB431358299F542160EEDD013080
:107B600066282860E7DD5320DFF8548028604FF056
:107B700042090127C4F800904221FFF749FA28681A
:107B8000226888FB0013A3EBE07303EB8303511C13
:107B900006EB431346299F542160EEDD0130652832
:107BA0002860E7DD6D20DFF8188028604FF030098D
:107BB000012707E0403800204C380020E46F002007
:107BC00056555555C4F800903021FFF721FA286822
:107BD000226888FB0013A3EBE07303EB8303511CC3
:107BE00006EB431334299F542160EEDD01307F28DA
:107BF0002860E7DD6D20DFF8FC8028604FF0300959
:107C00000127C4F800903021FFF702FA28682268A3
:107C100088FB0013A3EBE07303EB8303511C06EB1B
:107C2000431358299F542160EEDD013071282860EC
:107C3000E7DD7C20DFF8BC8028604FF030090127A9
:107C4000C4F800903021FFF7E3F92868226888FB28
:107C50000013A3EBE07303EB8303511C06EB431308
:107C600042299F542160EEDD013080282860E7DD45
:107C70006D20DFF8808028604FF042090127C4F8AA
:107C800000904221FFF7C4F92868226888FB00139E
:107C9000A3EBE07303EB8303511C06EB431346296C
:107CA0009F542160EEDD01307F282860E7DD0E4D16
:107CB0000E4C0F4F6E2046212860216000263E604A
:107CC00000231844FFF7A4F93B68286821680133B2
:107CD000042B3B60F5DD013101305829286021601B
:107CE000EDDDBDE8F88300BF68380020343800209F
:107CF00054380020565555552DE9F84FD54CDFF82E
:107D000060B3D54DD54F092020604FF020080126E3
:107D1000CBF800802021FFF77BF92068DBF80030EA
:107D200087FB0012A2EBE07202EB8202591C05EB0A
:107D300042122429D654CBF80010ECDD0130212862
:107D40002060E5DD0920C54F20604FF020080126A6
:107D5000CBF800802021FFF75BF92068DBF80030CA
:107D600087FB0012A2EBE07202EB8202591C05EBCA
:107D700042124829D654CBF80010ECDD01300D2812
:107D80002060E5DD0920B54F20604FF04408012652
:107D9000CBF800804421FFF73BF92068DBF8003086
:107DA00087FB0012A2EBE07202EB8202591C05EB8A
:107DB00042124829D654CBF80010ECDD01302128BE
:107DC0002060E5DD2020A54F20604FF0340801261B
:107DD000CBF800803421FFF71BF92068DBF8003076
:107DE00087FB0012A2EBE07202EB8202591C05EB4A
:107DF00042124829D654CBF80010ECDD013024287B
:107E00002060E5DD1320954F20604FF034080126F7
:107E1000CBF800803421FFF7FBF82068DBF8003056
:107E200087FB0012A2EBE07202EB8202591C05EB09
:107E300042123829D654CBF80010ECDD013023284B
:107E40002060E5DD2820854F20604FF020080126C6
:107E5000CBF800802021FFF7DBF82068DBF800304A
:107E600087FB0012A2EBE07202EB8202591C05EBC9
:107E700042122429D654CBF80010ECDD01303D2805
:107E80002060E5DD2820754F20604FF02008012696
:107E9000CBF800802021FFF7BBF82068DBF800302A
:107EA00087FB0012A2EBE07202EB8202591C05EB89
:107EB00042124829D654CBF80010ECDD01302C28B2
:107EC0002060E5DD3920654F20604FF02008012655
:107ED000CBF800802021FFF79BF82068DBF800300A
:107EE00087FB0012A2EBE07202EB8202591C05EB49
:107EF00042124829D654CBF80010ECDD01303D2861
:107F00002060E5DD2820554F20604FF03208012623
:107F1000CBF800803221FFF77BF82068DBF80030D7
:107F200087FB0012A2EBE07202EB8202591C05EB08
:107F300042123629D654CBF80010ECDD01303D2832
:107F40002060E5DD4220454F20604FF020080126EB
:107F5000CBF800802021FFF75BF82068DBF80030C9
:107F600087FB0012A2EBE07202EB8202591C05EBC8
:107F700042122429D654CBF80010ECDD01304B28F6
:107F80002060E5DD4220354F20604FF020080126BB
:107F9000CBF800802021FFF73BF82068DBF80030A9
:107FA00087FB0012A2EBE07202EB8202591C05EB88
:107FB00042124829D654CBF80010ECDD0130462897
:107FC0002060E5DD4920254F20604FF02008012684
:107FD000CBF800802021FFF71BF82068DBF8003089
:107FE00087FB0012A2EBE07202EB8202591C05EB48
:107FF00042123229D654CBF80010ECDD01304D2866
:108000002060E5DD4920154F20604FF03008012643
:10801000CBF800803021FEF7FBFF2068DBF8003052
:1080200087FB0012A2EBE07202EB8202591C05EB07
:1080300042123429D654CBF80010ECDD013052281E
:108040002060E5DD5020054F20604FF0200801261C
:1080500008E000BF40380020E46F00205655555519
:108060004C380020CBF800802021FEF7D1FF20689B
:10807000DBF8003087FB0012A2EBE07202EB820219
:10808000591C05EB42123429D654CBF80010ECDD14
:10809000013054282060E5DD5020CE4F20604FF0A5
:1080A00020080126CBF800802021FEF7B1FF2068D0
:1080B000DBF8003087FB0012A2EBE07202EB8202D9
:1080C000591C05EB42122429D654CBF80010ECDDE4
:1080D000013059282060E5DD5720BE4F20604FF069
:1080E00020080126CBF800802021FEF791FF2068B0
:1080F000DBF8003087FB0012A2EBE07202EB820299
:10810000591C05EB42124829D654CBF80010ECDD7F
:1081100001305B282060E5DD6020AE4F20604FF02D
:1081200020080126CBF800802021FEF771FF20688F
:10813000DBF8003087FB0012A2EBE07202EB820258
:10814000591C05EB42124829D654CBF80010ECDD3F
:10815000013064282060E5DD60209E4F20604FF0F4
:1081600020080126CBF800802021FEF751FF20686F
:10817000DBF8003087FB0012A2EBE07202EB820218
:10818000591C05EB42122429D654CBF80010ECDD23
:10819000013075282060E5DD60208E4F20604FF0B3
:1081A00032080126CBF800803221FEF731FF20682B
:1081B000DBF8003087FB0012A2EBE07202EB8202D8
:1081C000591C05EB42123629D654CBF80010ECDDD1
:1081D000013075282060E5DD60207E4F20604FF083
:1081E00044080126CBF800804421FEF711FF2068E7
:1081F000DBF8003087FB0012A2EBE07202EB820298
:10820000591C05EB42124829D654CBF80010ECDD7E
:10821000013075282060E5DD09206E4F20604FF0A9
:1082200060080126CBF800806021FEF7F1FE20688F
:10823000DBF8003087FB0012A2EBE07202EB820257
:10824000591C05EB42126429D654CBF80010ECDD22
:1082500001301F282060E5DD09205E4F20604FF0CF
:1082600060080126CBF800806021FEF7D1FE20686F
:10827000DBF8003087FB0012A2EBE07202EB820217
:10828000591C05EB42128829D654CBF80010ECDDBE
:1082900001300D282060E5DD09204E4F20604FF0B1
:1082A00084080126CBF800808421FEF7B1FE206807
:1082B000DBF8003087FB0012A2EBE07202EB8202D7
:1082C000591C05EB42128829D654CBF80010ECDD7E
:1082D00001301F282060E5DD20203E4F20604FF058
:1082E00060080126CBF800806021FEF791FE20682F
:1082F000DBF8003087FB0012A2EBE07202EB820297
:10830000591C05EB42128829D654CBF80010ECDD3D
:10831000013024282060E5DD2F4F304EDFF8C0808B
:10832000DFF8C0A0602139604FF00009C6F8009066
:108330000022D8F800001044FEF76AFE326839685F
:108340000132042A3260F4DD8AFB0132A2EBE172D1
:1083500002EB4202B1EB420F36D1D8F800200131D6
:10836000013284293960C8F80020DFDD392060211E
:10837000DFF870A0C8F8000039604FF00009C6F8B7
:108380000090002202E0D8F8000039681044FEF79F
:108390003FFE32680132042A3260F4DD39688AFB1C
:1083A0000132A2EBE17202EB4202B1EB420F1BD1B0
:1083B000D8F800200131013A84293960C8F800203A
:1083C00016DCD8F80000DAE7013184293960ADDD28
:1083D000CCE700BF56555555383800205838002096
:1083E000AC210020ABAAAA2A013184293960E8DD3A
:1083F0003020DFF89CA220604FF001098423CBF8E5
:1084000000301946FEF704FE2068DBF800308AFBD6
:108410000012A2EBE07202EB8202591C05EB421241
:10842000882902F80390CBF80010EBDD01303628E4
:108430002060E3DD4220DFF858A220604FF0010900
:108440006023CBF800301946FEF7E2FD2068DBF828
:1084500000308AFB0012A2EBE07202EB8202591C90
:1084600005EB4212882902F80390CBF80010EBDDEF
:10847000013046282060E3DD4220DFF814A22060AE
:108480004FF001096023CBF800301946FEF7C0FD1C
:108490002068DBF800308AFB0012A2EBE07202EBEE
:1084A0008202591C05EB4212642902F80390CBF8B2
:1084B0000010EBDD013057282060E3DD4220DFF8BB
:1084C000D0A120604FF001097223CBF8003019468B
:1084D000FEF79EFD2068DBF800308AFB0012A2EB5D
:1084E000E07202EB8202591C05EB4212762902F877
:1084F0000390CBF80010EBDD013057282060E3DD5E
:108500004220DFF88CA120604FF001098423CBF8D2
:1085100000301946FEF77CFD2068DBF800308AFB4E
:108520000012A2EBE07202EB8202591C05EB421230
:10853000882902F80390CBF80010EBDD01305728B2
:108540002060E3DD6022DFF848A1226010464FF092
:1085500001096023CBF800301946FEF759FD206869
:10856000DBF800308AFB0012A2EBE07202EB820221
:10857000591C05EB4212642902F80390CBF8001055
:10858000EBDD013072282060E3DD6022DFF800A11E
:10859000226010464FF001096023CBF800301946E5
:1085A000FEF736FD2068DBF800308AFB0012A2EBF4
:1085B000E07202EB8202591C05EB4212882902F894
:1085C0000390CBF80010EBDD013064282060E3DD80
:1085D0006F20DFF8BCA020604FF001096023CBF8CA
:1085E00000301946FEF714FD2068DBF800308AFBE6
:1085F0000012A2EBE07202EB8202591C05EB421260
:10860000752902F80390CBF80010EBDD01307328D8
:108610002060E3DD6020DFF878A020604FF00109E2
:108620007223CBF800301946FEF7F2FC2068DBF825
:1086300000308AFB0012A2EBE07202EB8202591CAE
:1086400005EB4212762902F80390CBF80010EBDD1F
:10865000013072282060E3DD61207621C8F8000037
:1086600039600024346000231844FEF7D1FC3368DD
:10867000D8F8000039680133042B3360F4DD013190
:1086800001308829C8F800003960EBDDBDE8F88FBB
:10869000565555554FF0A04138B54FF080406C4DC0
:1086A000C1F80C056B4B2A686B4C00BF00BF00BFC4
:1086B00000BF00BF00BF00BF00BFA2422FD000BF5D
:1086C00000BF00BF00BF00BF00BF00BF00BF00BFB2
:1086D00000BF00BF00BF00BF00BF00BF00BF00BFA2
:1086E00000BF00BF00BF00BF00BF00BF00BF00BF92
:1086F00000BF00BF00BF00BF00BF00BF00BF00BF82
:1087000000BF00BF00BF00BF00BF00BF00BF00BF71
:1087100000BF00BF00BF00BF00BF00BF00BF013BE4
:10872000C3D14E4BC1F8080500BF00BF00BF00BF5A
:1087300000BF00BF00BF00BFA2422FD000BF00BFDC
:1087400000BF00BF00BF00BF00BF00BF00BF00BF31
:1087500000BF00BF00BF00BF00BF00BF00BF00BF21
:1087600000BF00BF00BF00BF00BF00BF00BF00BF11
:1087700000BF00BF00BF00BF00BF00BF00BF00BF01
:1087800000BF00BF00BF00BF00BF00BF00BF00BFF1
:1087900000BF00BF00BF00BF00BF00BF013BC3D18F
:1087A000D7210020FEF7BCF99F210120FEF7B8F980
:1087B000E0210020FEF7B4F900210120FEF7B0F916
:1087C00042F210732A6800BF00BF00BF00BF00BFA5
:1087D00000BF00BF00BFA2422FD000BF00BF00BF3C
:1087E00000BF00BF00BF00BF00BF00BF00BF00BF91
:1087F00000BF00BF00BF00BF00BF00BF00BF00BF81
:1088000000BF00BF00BF00BF00BF00BF00BF00BF70
:1088100000BF00BF00BF00BF00BF00BF00BF00BF60
:1088200000BF00BF00BF00BF00BF00BF00BF00BF50
:1088300000BF00BF00BF00BF00BF013BC3D1E321A9
:108840000020FEF76DF944F620632A6808E000BFB7
:10885000B4210020A08601000024F400C0D401004F
:1088600000BF00BF00BF00BF00BF00BF00BF00BF10
:10887000A2422FD000BF00BF00BF00BF00BF00BF9B
:1088800000BF00BF00BF00BF00BF00BF00BF00BFF0
:1088900000BF00BF00BF00BF00BF00BF00BF00BFE0
:1088A00000BF00BF00BF00BF00BF00BF00BF00BFD0
:1088B00000BF00BF00BF00BF00BF00BF00BF00BFC0
:1088C00000BF00BF00BF00BF00BF00BF00BF00BFB0
:1088D00000BF00BF013BC3D1E1210020FEF720F91A
:1088E00011210020FEF71CF928210020FEF718F9BD
:1088F0004CF250332A6800BF00BF00BF00BF00BF6A
:1089000000BF00BF00BFA2422FD000BF00BF00BF0A
:1089100000BF00BF00BF00BF00BF00BF00BF00BF5F
:1089200000BF00BF00BF00BF00BF00BF00BF00BF4F
:1089300000BF00BF00BF00BF00BF00BF00BF00BF3F
:1089400000BF00BF00BF00BF00BF00BF00BF00BF2F
:1089500000BF00BF00BF00BF00BF00BF00BF00BF1F
:1089600000BF00BF00BF00BF00BF013BC3D1C0219B
:108970000020FEF7D5F853210120FEF7D1F80121A0
:108980000846FEF7CDF8C3210020FEF7C9F8022102
:108990000120FEF7C5F8C4210020FEF7C1F806212A
:1089A0000120FEF7BDF8D0210020FEF7B9F81D2107
:1089B0000120FEF7B5F8B5210020FEF7B1F800213F
:1089C0000120FEF7ADF839210020FEF7A9F83A2181
:1089D0000020FEF7A5F802210120FEF7A1F83621BC
:1089E0000020FEF79DF800210120FEF799F8B02144
:1089F0000020FEF795F89F210120FEF791F8B421A1
:108A00000020FEF78DF8A0210120FEF789F8302123
:108A10000020FEF785F800210120FEF781F80021F3
:108A20000120FEF77DF800210120FEF779F877217B
:108A30000120FEF775F820210020FEF771F8FEF7FF
:108A4000EDF929210020BDE83840FEF769B800BFE4
:108A50002DE9F84FFFF71EFEFEF7C2FC292100208A
:108A6000FEF75EF8794A7A4B12687A4900BF00BF78
:108A700000BF00BF00BF00BF00BF00BF8A422FD0B1
:108A800000BF00BF00BF00BF00BF00BF00BF00BFEE
:108A900000BF00BF00BF00BF00BF00BF00BF00BFDE
:108AA00000BF00BF00BF00BF00BF00BF00BF00BFCE
:108AB00000BF00BF00BF00BF00BF00BF00BF00BFBE
:108AC00000BF00BF00BF00BF00BF00BF00BF00BFAE
:108AD00000BF00BF00BF00BF00BF00BF00BF00BF9E
